S00B00004144432E7372656351
S113000084C10000A2C10000A0C100009EC1000084
S11300109CC100009AC1000098C1000096C1000074
S113002094C1000092C1000090C100008EC1000084
S11300308CC100008AC1000088C1000086C1000094
S113004084C1000082C1000080C100007EC10000A4
S11300507CC100007AC1000078C1000076C10000B4
S113006074C1000072C1000070C100006EC10000C4
S11300706CC100006AC1000068C1000066C10000D4
S113008064C1000062C1000060C100005EC10000E4
S11300905CC100005AC1000058C10000DBC200006E
S11300A00BC300003BC300006BC300004EC1000043
S11300B04CC100004AC1000048C1000046C1000014
S11300C044C1000042C1000040C100003EC1000024
S11300D03CC100003AC1000038C1000036C1000034
S11300E034C1000032C1000030C100002EC1000044
S11300F02CC100002AC1000028C1000026C1000054
S113010024C1000022C1000020C100001EC1000063
S11301101CC100001AC1000018C10000D3C10000B6
S113012003C2000033C2000063C200000EC100001D
S11301300CC100000AC1000008C1000006C1000093
S113014004C1000002C1000000C10000FEC00000A4
S1130150FCC00000FAC00000F8C00000F6C00000B7
S1130160F4C00000F2C00000F0C00000EEC00000C7
S1130170ECC00000EAC00000E8C00000E6C00000D7
S1130180E4C00000E2C00000E0C00000DEC00000E7
S1130190DCC00000DAC00000D8C00000D6C00000F7
S11301A0D4C00000D2C00000D0C00000CEC0000007
S11301B0CCC00000CAC00000C8C00000C6C0000017
S11301C0C4C00000C2C00000C0C00000BEC0000027
S11301D0BCC00000BAC00000B8C00000B6C0000037
S11301E0B4C00000B2C00000B0C00000AEC0000047
S11301F0ACC00000AAC00000A8C000006E616E0080
S1130200696E660000407A10F35A00A0724E180915
S11302100010A5D4E80000E87648170000E40B5469
S1130220020000CA9A3B000000E1F5050000809638
S11302309800000040420F000000A086010000006A
S1130240102700000000E803000000006400000024
S113025000000A00000000000100000000002C76ED
S1130260D888DC674F0823DFC1DFAE59E1B1B79608
S1130270E5E3E453C63AE651997696E8E6C2842665
S1130280EB898C9B62ED407C6FFCEFBC9C9F40F241
S1130290BAA56FA5F490055A2AF75C936B6CF967BD
S11302A06DC11BFCE0E40D47FEF520E6B500D0ED82
S11302B0902E0300943577050080841E08000020EA
S11302C04E0A000000C80C333333330F986E128388
S11302D01141EF8D2114893BE65516CFFEE6DB185C
S11302E0D1844B381BF77C1D901DA4BBE424203221
S11302F084725E228100C9F124ECA1E53D27636488
S1130300696E6F70737578585B0011241FBECFEF50
S1130310CDBFDFE5DEBF00E00CBF10E2A0E0B0E23D
S1130320E6EDF6E200E00BBF02C007900D92A831A3
S1130330B107D9F720E2A8E1B0E201C01D92A434CC
S1130340B207E1F7B3D50C9469135ACE8FEF8093BB
S11303507000809371008093720080937300809387
S1130360740080937500809376008FB7F894E0E56D
S1130370F0E09081926090838FBF818181FFFDCFF7
S113038061E080E490E015D38FB7F894E0E5F0E005
S113039090819E7F90838FBF08959FB7F894E82F34
S11303A0F0E0E059FF4F60958081682360839FBF30
S11303B008959FB7F894E82FF0E0E059FF4F80814B
S11303C0682B60839FBF0895CF93DF931F92CDB7AF
S11303D0DEB78091342090913520E0913020F09167
S11303E03120BE016F5F7F4F19958981992787FD61
S11303F090950F90DF91CF910895682F80913420CC
S113040090913520E0913220F09133201995992371
S11304101CF48FEF9FEF089581E090E0089581151B
S113042022E0920761F48091192091E0980F909353
S11304301920811112C062E081E0AFCF08958034A9
S1130440924059F48091182091E0980F90931820CD
S1130450811103C062E082E0A0CF0895811522E0FB
S1130460920759F4809119208150809319208111A9
S113047011C062E081E09DCF08958034924051F430
S113048080911820815080931820811103C062E06C
S113049082E08FCF08951F93CF93DF93EC011FB7B2
S11304A0F894BDDF8881816088831FBF8FB7F8947B
S11304B0EBE2F0E290819F5F90838FBFDF91CF9159
S11304C01F9108951F920F920FB60F9211240BB62D
S11304D00F922F933F934F935F936F937F938F93D9
S11304E09F93AF93BF93EF93FF93E0E0F2E044A1B7
S11304F055A1E0913820F091392061E080E092E04C
S11305001995FF91EF91BF91AF919F918F917F9139
S11305106F915F914F913F912F910F900BBE0F9070
S11305200FBE0F901F9018951F920F920FB60F9247
S113053011240BB60F922F933F934F935F936F93B6
S11305407F938F939F93AF93BF93EF93FF93E8E2CF
S1130550F2E044815581E0913820F091392062E045
S113056080E092E01995FF91EF91BF91AF919F9137
S11305708F917F916F915F914F913F912F910F9048
S11305800BBE0F900FBE0F901F9018951F920F92E5
S11305900FB60F9211240BB60F922F933F934F93E4
S11305A05F936F937F938F939F93AF93BF93EF93D7
S11305B0FF93E0E3F2E044815581E0913820F0912B
S11305C0392064E080E092E01995FF91EF91BF91AA
S11305D0AF919F918F917F916F915F914F913F91D7
S11305E02F910F900BBE0F900FBE0F901F90189578
S11305F01F920F920FB60F9211240BB60F922F93E6
S11306003F934F935F936F937F938F939F93AF9396
S1130610BF93EF93FF93E8E3F2E044815581E091C7
S11306203820F091392068E080E092E01995FF913C
S1130630EF91BF91AF919F918F917F916F915F9156
S11306404F913F912F910F900BBE0F900FBE0F90C3
S11306501F9018951F920F920FB60F9211240BB68C
S11306600F922F933F934F935F936F937F938F9347
S11306709F93AF93BF93EF93FF93E0E4F2E044A121
S113068055A1E0913620F091372061E080E492E0BA
S11306901995FF91EF91BF91AF919F918F917F91A8
S11306A06F915F914F913F912F910F900BBE0F90DF
S11306B00FBE0F901F9018951F920F920FB60F92B6
S11306C011240BB60F922F933F934F935F936F9325
S11306D07F938F939F93AF93BF93EF93FF93E8E63A
S11306E0F2E044815581E0913620F091372062E0B8
S11306F080E492E01995FF91EF91BF91AF919F91A2
S11307008F917F916F915F914F913F912F910F90B6
S11307100BBE0F900FBE0F901F9018951F920F9253
S11307200FB60F9211240BB60F922F933F934F9352
S11307305F936F937F938F939F93AF93BF93EF9345
S1130740FF93E0E7F2E044815581E0913620F09197
S1130750372064E080E492E01995FF91EF91BF9116
S1130760AF919F918F917F916F915F914F913F9145
S11307702F910F900BBE0F900FBE0F901F901895E6
S11307801F920F920FB60F9211240BB60F922F9354
S11307903F934F935F936F937F938F939F93AF9305
S11307A0BF93EF93FF93E8E7F2E044815581E09132
S11307B03620F091372068E080E492E01995FF91AB
S11307C0EF91BF91AF919F918F917F916F915F91C5
S11307D04F913F912F910F900BBE0F900FBE0F9032
S11307E01F901895DF92EF92FF920F931F93CF9370
S11307F0DF93EC018B01C11522E0D20771F461E2B1
S113080070E082E0DCD0E82EF12C60E270E082E05F
S1130810D6D0FE2CEE24E82A10C08034924059F53C
S113082065E270E082E0CBD0E82EF12C64E270E067
S113083082E0C5D0FE2CEE24E82ADFB6F894CE017F
S1130840EEDD288182E08883EC86FD86F8018581CF
S11308509681888F998F82818A8384818C83838116
S11308608B8381818983822F81709081892B8883F6
S1130870CE01F4DDDFBEDF91CF911F910F91FF9088
S1130880EF90DF900895FF920F931F93CF93DF9320
S1130890EC018B01FFB6F894C2DD8881807CF801FD
S11308A08083888D998D858396838A8182838C81C8
S11308B084838B81838389818183CE01CFDDFFBED5
S11308C0DF91CF911F910F91FF900895CF92DF9206
S11308D0EF92FF920F931F93CF93DF937C01D62E59
S11308E08A01862F837029F4962F9695969582E037
S11308F002C0962F80E090FF8F5FE701A09698E0FA
S1130900899FC00DD11D1124CFB6F894C70187DD8E
S1130910F8018081888382818A8381818983D0FEE2
S113092002C083818E83C70199DDCFBEDF91CF9151
S11309301F910F91FF90EF90DF90CF900895CF9289
S1130940DF92EF92FF920F931F93CF93DF937C017B
S1130950D62EEA01862F837029F4962F96959695C4
S113096082E002C0962F80E090FF8F5F8701005ED7
S11309701F4F98E0899F000D111D1124CFB6F894E4
S1130980C7014DDDF8018081888382818A8381815A
S11309908983D0FE02C086818B83C7015FDDCFBE11
S11309A0DF91CF911F910F91FF90EF90DF90CF9047
S11309B008951BBEFC0128ED24BF60830895409177
S11309C0CA01E62FF72F8093CA0184914093CA018C
S11309D00895FC01818185FFFDCF608380E090E074
S11309E00895FC0181818823ECF7808108954F925A
S11309F05F926F927F928F929F92AF92BF92CF92AB
S1130A00DF92EF92FF920F931F93CF93DF93EC014A
S1130A104A015B0128013901D901C801689412F81F
S1130A20B695A795979587951694D1F7B901A8011E
S1130A30032E36E176956795579547953A95D1F704
S1130A40302D2C8122FD08C0B695A79597958795E2
S1130A50769567955795479588159905AA05BB0519
S1130A6008F4A2C084169506A606B70608F49EC02C
S1130A708C8182FD04C0880C991CAA1CBB1CC30178
S1130A80B201A50194017ED72F3F310541055105DF
S1130A9008F48EC0C12CD12C7601CA9419EF05C07C
S1130AA02C153D054E055F0568F0CC0CDD1CEE1CD5
S1130AB0FF1C1D3F14F46894C0F81F5F173081F7C2
S1130AC0212F4EC0212F11230CF04AC0D501C4019F
S1130AD0880F991FAA1FBB1F880F991FAA1FBB1F2E
S1130AE0880F991FAA1FBB1F481A590A6A0A7B0A52
S1130AF01E3FECF46DEF7FEF611B710917FD7395D9
S1130B0004C0440C551C661C771C6A95D2F7D501A9
S1130B10C401B695A79597958795BC01CD01640D41
S1130B20751D861D971DA50194012CD734C023E0A3
S1130B30210FD501C40104C0880F991FAA1FBB1F30
S1130B402A95D2F79C01AD01B695A79597958795FF
S1130B50BC01CD01640D751D861D971D13D71BC0E7
S1130B602D5FD501C40104C0880F991FAA1FBB1FA4
S1130B702A95D2F79C01AD01B695A79597958795CF
S1130B80BC01CD01640D751D861D971DFBD621503A
S1130B90310941095109832F8F701295107F182B49
S1130BA01F832E8381E018C080E016C080E014C04B
S1130BB0D501C401880F991FAA1FBB1F880F991F55
S1130BC0AA1FBB1F880F991FAA1FBB1F481A590AC7
S1130BD06A0A7B0A19EF8ECFDF91CF911F910F9193
S1130BE0FF90EF90DF90CF90BF90AF909F908F9049
S1130BF07F906F905F904F9008950F931F93CF93C2
S1130C00DF93EC018B01009709F4E6C0803C910569
S1130C1021F460E180E0C1DBDFC0C03881E0D807A7
S1130C2021F462E080E0B9DBD7C0C115E1E0DE0762
S1130C3021F461E080E0B1DBCFC0C038F3E0DF072E
S1130C4021F461E081E0A9DBC7C0C03983E0D807A3
S1130C5021F461E082E0A1DBBFC0C115E2E0DE0760
S1130C6021F462E081E099DBB7C0C034F2E0DF0731
S1130C7021F462E082E091DBAFC0C03283E0D807A8
S1130C8021F464E082E089DBA7C0C115E8E0DE0757
S1130C9021F461E083E081DB9FC0C115F9E0DF0747
S1130CA021F461E084E079DB97C0C1158AE0D807BC
S1130CB021F461E085E071DB8FC0C115EBE0DE0754
S1130CC021F461E086E069DB87C0C034F8E0DF0727
S1130CD021F462E083E061DB7FC0C03489E0D8079F
S1130CE021F462E084E059DB77C0C034EAE0DE0737
S1130CF021F462E085E051DB6FC0C039F8E0DF0722
S1130D0021F464E083E049DB67C0C03989E0D80797
S1130D1021F464E084E041DB5FC0C039EAE0DE072F
S1130D2021F464E085E039DB57C0C039FBE0DF071C
S1130D3021F464E086E031DB4FC0C03C88E0D80792
S1130D4021F468E083E029DB47C0C03CE9E0DE072A
S1130D5021F468E084E021DB3FC0C03AF8E0DF071B
S1130D6021F460E183E019DB37C0C03A89E0D80799
S1130D7021F460E184E011DB2FC0C03AEAE0DE0731
S1130D8021F460E185E009DB27C0C03AFBE0DF071E
S1130D9021F460E186E001DB1FC0C03B88E0D80796
S1130DA021F460E283E0F9DA17C0C03BE9E0DE0732
S1130DB021F460E284E0F1DA0FC0C038F4E0DF0728
S1130DC021F460E483E0E9DA07C0C03A84E0D8079C
S1130DD019F460E485E0E1DA8D818F738D83F80185
S1130DE094818581892B9681992311F098E001C023
S1130DF090E0892B8D83F801408151816281738158
S1130E0000E018E428EE31E0CE01F1DD9C81986029
S1130E109C839C8190619C83DF91CF911F910F9162
S1130E200895CF93DF93EB01DCDD8883DF91CF91CD
S1130E300895CFCD08958FB7F894E0E0F2E0908163
S1130E40946090838FBF868180FFFDCF81E0E0E0D6
S1130E50F2E086838FB7F89464A175A18FBF8827C9
S1130E6077FD8095982F1ED120E030E0A901B4C011
S1130E7008959F938F937F936F938DE090E29F9358
S1130E808F938AE190E29F938F9335D76EE270E05F
S1130E908AE190E27CD62CE2FC0120838DB79EB7D8
S1130EA008968DBF9EBF8AE190E20895CF93DF93A9
S1130EB0CDB7DEB72B97CDBFDEBF48DABE016F5F7B
S1130EC07F4F80E092E0DFDCAE01485F5F4F61E07E
S1130ED080E092E034DD8A819B819F789B83817ED0
S1130EE080618A831C8284E08D8383E0888789E023
S1130EF08987BE016F5F7F4F80E092E073DCAE01B3
S1130F00485F5F4F61E080E092E0E0DC80EA9AE0D5
S1130F10809334209093352089E197E080933220A8
S1130F209093332081E197E0809330209093312097
S1130F3080910A208D8380910B208E8380910C20D8
S1130F408F838091062090910720A0910820B09172
S1130F50092089839A83AB83BC8360E185E01DDA31
S1130F60BE016F5F7F4F80EA9AE047DE64EE71E076
S1130F708DEF91E022D688E0E0E8F6E0818380E01E
S1130F8092E089DACE0101966C010F2EF0E1EF2E8A
S1130F90F0E2FF2EF02D03E110E2DF92CF92FF92F8
S1130FA0EF9298D648DF20E030E04AEF5EE306D1C6
S1130FB024E232E64AEA5EE30FD02FE430E749E761
S1130FC053E4FCD056DF9F938F931F930F9371D6F6
S1130FD0CDBFDEBFE2CF5058BB27AA270ED0B4C086
S1130FE0A5D030F0AAD020F031F49F3F11F41EF4C4
S1130FF09AC00EF4E095E7FB90C0E92FB6D080F3D9
S1131000BA17620773078407950718F071F49EF501
S1131010CEC00EF4E0950B2EBA2FA02D0B01B90112
S113102090010C01CA01A0011124FF27591B99F05A
S1131030593F50F4503E68F11A16F040A22F232F66
S1131040342F4427585FF3CF469537952795A795B6
S1131050F0405395C9F77EF41F16BA0B620B730B5D
S1131060840BBAF09150A1F0FF0FBB1F661F771FCE
S1131070881FC2F70EC0BA0F621F731F841F48F483
S1131080879577956795B795F7959E3F08F0B3CF09
S11310909395880F08F09927EE0F979587950895F3
S11310A0E89409C097FB3EF49095809570956195FE
S11310B07F4F8F4F9F4F9923A9F0F92F96E9BB27B4
S11310C09395F695879577956795B795F111F8CF30
S11310D0FAF4BB0F11F460FF1BC06F5F7F4F8F4F9B
S11310E09F4F16C0882311F096E911C0772321F091
S11310F09EE8872F762F05C0662371F096E8862F29
S113110070E060E02AF09A95660F771F881FDAF77F
S1131110880F9695879597F9089597F99F6780E8C2
S113112070E060E008959FEF80EC089500240A9435
S11311301616170618060906089500240A941216AE
S11311401306140605060895092E0394000C11F4E1
S1131150882352F0BB0F40F4BF2B11F460FF04C08E
S11311606F5F7F4F8F4F9F4F089557FD9058440FE7
S1131170551F59F05F3F71F04795880F97FB991FF2
S113118061F09F3F79F087950895121613061406AF
S1131190551FF2CF4695F1DF08C01616170618063C
S11311A0991FF1CF86957105610508940895E89417
S11311B0BB2766277727CB0197F908950BD0C4CFB7
S11311C0B5DF28F0BADF18F0952309F0A6CFABCF2E
S11311D01124EECFCADFA0F3959FD1F3950F50E011
S11311E0551F629FF001729FBB27F00DB11D639FD5
S11311F0AA27F00DB11DAA1F649F6627B00DA11D7B
S1131200661F829F2227B00DA11D621F739FB00D20
S1131210A11D621F839FA00D611D221F749F332790
S1131220A00D611D231F849F600D211D822F762F29
S11312306A2F11249F5750408AF0E1F088234AF026
S1131240EE0FFF1FBB1F661F771F881F9150504072
S1131250A9F79E3F510570F060CFAACF5F3FECF332
S1131260983EDCF3869577956795B795F795E7955E
S11312709F5FC1F7FE2B880F911D9695879597F96F
S113128008952F923F924F925F926F927F928F9226
S11312909F92AF92BF92CF92DF92EF92FF920F9301
S11312A01F93CF93DF93CDB7DEB76397CDBFDEBF78
S11312B07C011B016A01FC0116821782838181FF74
S11312C049C3BE016F5F7F4F4B01F7019381F10169
S11312D093FD859193FF81911F01882309F436C3FF
S11312E0853239F493FD859193FF81911F018532F5
S11312F031F4B70190E0ABD456016501E6CF10E0BC
S1131300512C20E02032A0F48B3269F030F480328A
S113131059F0833269F420612CC08D3239F0803366
S113132039F4216026C02260246023C0286021C0D3
S113133027FD27C030ED380F3A3078F426FF06C079
S1131340FAE01F9F300D1124132F13C06AE0569E3C
S1131350300D1124532E20620CC08E3221F426FD50
S1131360F5C2206406C08C3611F4206802C08836A9
S113137041F4F10193FD859193FF81911F01811146
S1131380C1CF9BEB980F933018F42061805E06C0A8
S11313909BE9980F933008F09AC12F7E26FF16E040
S11313A02F73722E853621F4F22FF0647F2E08C03D
S11313B0863621F4622F6068762E02C01111115016
S11313C077FE07C01C3348F444244394410E27E0BD
S11313D00BC0183030F4212F06C027E04CE3442E14
S11313E003C027E017E0412C560174E0A70EB11C9E
S11313F0F6016081718182819381042DA401E4D27C
S11314006C01098100FF02C003FF06C071FC07C024
S113141072FC08C0612C08C03DE2632E05C02BE2BB
S1131420622E02C090E2692E802F8C7081F16620BA
S113143011F084E001C083E0851510F0512C0AC03E
S1131440581A73FC07C0B70180E290E000D45A94A4
S1131450D1F7F4CF662021F0B701862D90E0F7D3C1
S113146003FD03C000E012E002C00CEF11E0F72D11
S1131470F0717F2EF8018491882309F45EC2711003
S11314808052B70190E0E3D30F5F1F4FF3CF77FE95
S11314900FC04C0C04FF04C08A81813309F44A94C0
S11314A0141474F5F8E0F41578F588E0482E2CC08F
S11314B076FC2AC0812F90E08C159D059CF06CEF82
S11314C0C6166FEFD60674F0772D7068772E0AC0B3
S11314D0E2E0F0E0EC0FFD1FE10FF11D80818033AD
S11314E019F411501111F4CF77FE0EC04424439423
S11314F0410E812F90E0C816D9062CF41C1904C0A3
S11315004424439401C010E077FE07C01C141D045A
S11315103CF496012F5F3F4F05C025E030E002C048
S113152021E030E0662011F02F5F3F4F112331F0AE
S1131530412F50E04F5F5F4F240F351F452D50E082
S11315402417350714F4521A01C0512C872D8970C1
S113155041F4552031F0B70180E290E078D35A94F9
S1131560F8CF662021F0B701862D90E070D373FC8C
S113157008C0552031F0B70180E390E068D35A9455
S1131580F8CF77FE5DC09C2D8D2DD7FE02C090E074
S113159080E0692E782E40E050E0C601841991095C
S11315A08C879D87960126193709280D391D812FAF
S11315B090E0EE27FF27E81BF90BEE87FF87FFEF8C
S11315C06F167F0661F4B7018EE290E02B8B3A8BA5
S11315D0488B598B3CD3598948893A892B89C6143D
S11315E0D70454F06C857D85661577052CF4F901D4
S11315F0E40FF51F818101C080E371E0671A71086F
S11316004F5F5F4FEE85FF856E167F0664F0B7016E
S113161090E02B8B3A8B488B598B19D32B893A89C1
S113162048895989CCCF6C147D0439F49A81963356
S113163018F4953311F404FF81E3B70190E045C039
S11316408A81813309F00F7EB70190E000D3111134
S113165005C074FE16C085E490E015C0B7018EE2A3
S113166090E0F5D282E066246394680EF401E80FFA
S1131670F11D8081B70190E0EAD2115051F3862D1B
S1131680F2CF85E690E0B701E2D2D7FC05C0C114E1
S1131690D10439F404FF05C0D194C194D1088DE27A
S11316A001C08BE2B70190E0D2D280E36AE0C616B3
S11316B0D1042CF08F5FFAE0CF1AD108F7CFB7012D
S11316C090E0C5D2B701C601C096C1D236C18336F7
S11316D031F0833779F0833509F054C020C05601C6
S11316E072E0A70EB11CF6018081898301E010E04D
S11316F0640113C05601F2E0AF0EB11CF601C080C4
S1131700D18026FF03C0612F70E002C06FEF7FEF2E
S1131710C6012B8B47D28C012B892F7714C056011D
S1131720F2E0AF0EB11CF601C080D18026FF03C0E9
S1131730612F70E002C06FEF7FEFC6012B8B1CD2CC
S11317408C012B892068722E23FD18C0852D90E012
S11317500817190798F4B70180E290E078D25A94F8
S1131760F5CFF60177FC859177FE81916F01B70182
S113177090E06DD251105A940150110901151105D0
S113178081F7DBC0843611F0893649F5560127FF0D
S113179009C0F4E0AF0EB11CF60160817181828151
S11317A093810AC0F2E0AF0EB11CF6016081718131
S11317B0882777FD8095982F022F0F7697FF08C012
S11317C090958095709561957F4F8F4F9F4F0068DE
S11317D02AE030E0A401B7D2C82EC8183DC0022FB9
S11317E0853721F40F7E2AE030E01DC0097F8F3653
S11317F091F018F4883559F0A9C0803719F088376A
S113180011F0A4C0006104FF09C0046007C024FFF4
S113181008C0066006C028E030E005C020E130E0E2
S113182002C020E132E0560107FF09C0F4E0AF0E28
S1131830B11CF601608171818281938108C0F2E05C
S1131840AF0EB11CF6016081718180E090E0A401CB
S11318507AD2C82EC8180F7706FF0BC0202F2E7F10
S1131860C11650F404FF0AC002FD08C0202F2E7ECA
S113187005C0DC2C202F03C0DC2C01C0D12E24FF9A
S11318800DC0FE01EC0DF11D8081803311F4297E21
S113189009C022FF06C0D394D39404C0822F867853
S11318A009F0D39423FD12C020FF06C01C2DD514CB
S11318B018F4150D1D19D52CD51460F4B70180E268
S11318C090E02B8BC4D1D3942B89F6CFD51410F48C
S11318D05D1801C0512C24FF11C0B70180E390E0D2
S11318E02B8BB5D12B8922FF16C021FF03C088E5BD
S11318F090E002C088E790E0B7010CC0822F8678A0
S113190051F021FD02C080E201C08BE227FD8DE28F
S1131910B70190E09CD1C11630F4B70180E390E0A8
S113192096D11150F8CFCA94F401EC0DF11D8081C9
S1131930B70190E08CD1C110F6CF552009F4DDCC6D
S1131940B70180E290E083D15A94F7CFF701868102
S1131950978102C08FEF9FEF6396CDBFDEBFDF910B
S1131960CF911F910F91FF90EF90DF90CF90BF9098
S1131970AF909F908F907F906F905F904F903F902B
S11319802F900895A1E21A2EAA1BBB1BFD010DC0C6
S1131990AA1FBB1FEE1FFF1FA217B307E407F5071B
S11319A020F0A21BB30BE40BF50B661F771F881FF7
S11319B0991F1A9469F760957095809590959B018D
S11319C0AC01BD01CF010895283008F027E033278A
S11319D0DA01990F311D87FD91600096610571054B
S11319E039F432602E5F3D9330E32A95E1F7089590
S11319F09F3F30F080387105610509F03C5F3C5F22
S1131A003D93913008F08068911DDF93CF931F932D
S1131A100F93FF92EF92192F987F9695E92F969541
S1131A209695E90FFF27E25AFD4F99273327EE24B5
S1131A30FF24A701E70105900894079428F4360FC2
S1131A40E71EF81E491F511D660F771F881F991F37
S1131A500694A1F70590079428F4E70EF81E491F91
S1131A60561FC11D770F881F991F661F0694A1F783
S1131A700590079428F4F80E491F561FC71FD11D5F
S1131A80880F991F661F771F0694A1F70590079486
S1131A9020F4490F561FC71FD81F990F661F771FC1
S1131AA0881F0694A9F784911095177041F0D69574
S1131AB0C79557954795F794E7941A95C1F7E4E0CD
S1131AC0F2E0689415901591359165919591059082
S1131AD07FE27395E118F10A430B560BC90BD00949
S1131AE0C0F7E10CF11E431F561FC91FD01D7EF421
S1131AF0703311F48A95E6CFE894015030F0080F62
S1131B000AF40027021708F4202F2395022F7A33B2
S1131B1028F079E37D932A95E9F710C07D932A95FF
S1131B2089F6069497956795379517951794E11854
S1131B30F10A430B560BC90BD00998F023957E91FB
S1131B4073957A3308F070E37C932013B8F77E9191
S1131B5070617D9330F0839571E37D9370E32A95F2
S1131B60E1F71124EF90FF900F911F91CF91DF9136
S1131B70992787FD90950895FC0105906150704068
S1131B800110D8F7809590958E0F9F1F0895FC0142
S1131B908191861721F08823D9F7992708953197E1
S1131BA0CF010895FC016150704001900110D8F7F5
S1131BB0809590958E0F9F1F08950F931F93CF9339
S1131BC0DF93EC018B01009731F46115710519F471
S1131BD080E090E037C06EE070E081E090E0C4D334
S1131BE0FC010097A9F380E883830115110571F0C6
S1131BF00287138781E8838380913A2090913B2068
S1131C00892B21F4E0933A20F0933B202097C9F0EC
S1131C10C087D18783818260838380913C209091A7
S1131C203D20892B71F4E0933C20F0933D2080917A
S1131C303E2090913F20892B21F4E0933E20F093A5
S1131C403F20CF01DF91CF911F910F9108950F9302
S1131C501F93CF93DF93182F092FEB018B8181FD05
S1131C6003C08FEF9FEF20C082FF10C04E815F81C1
S1131C702C813D81421753077CF4E881F9819F014F
S1131C802F5F3F4F28833983108306C0E885F98589
S1131C90812F1995892B29F72E813F812F5F3F4F83
S1131CA02E833F83812F902FDF91CF911F910F912E
S1131CB00895CF93DF93CDB7DEB7FE0136966191D9
S1131CC07191AF0180913C2090913D20DADADF914F
S1131CD0CF910895CF93DF93CDB7DEB7FE0136964B
S1131CE061917191AF0180913A2090913B2013D280
S1131CF0DF91CF9108950F931F93CF93DF93CDB7C7
S1131D00DEB72E97CDBFDEBF0E891F8986E08C8398
S1131D1009831A838FEF9FE78D839E83AE01465E0E
S1131D205F4F688D798DCE010196ABDAEF81F8852E
S1131D30E00FF11F10822E96CDBFDEBFDF91CF9151
S1131D401F910F910895FA01AA27283051F12031EB
S1131D5081F1E8946F936E7F6E5F7F4F8F4F9F4F3B
S1131D60AF4FB1E03ED0B4E03CD0670F781F891F7D
S1131D709A1FA11D680F791F8A1F911DA11D6A0F4B
S1131D80711D811D911DA11D20D009F468943F91FE
S1131D902AE0269F11243019305D3193DEF6CF01FD
S1131DA00895462F4770405D4193B3E00FD0C9F7C3
S1131DB0F6CF462F4F70405D4A3318F0495D31FD30
S1131DC04052419302D0A9F7EACFB4E0A695979583
S1131DD0879577956795BA95C9F700976105710559
S1131DE008959B01AC010A2E0694579547953795A3
S1131DF02795BA95C9F7620F731F841F951FA01DFD
S1131E00089520FD09C0FC0123FD05C022FF02C086
S1131E107383628351834083089544FD10C046FD5B
S1131E2010C0DB01FC01AA0FBB1FEE1FFF1F1094A3
S1131E30D1F76A0F7B1F8E1F9F1F31E003C033E071
S1131E4001C034E0660F771F881F991F3150D1F706
S1131E50620F711D811D911D08950F931F93CF93E0
S1131E60DF938C01C801DBD3EC0197FD06C0BDD321
S1131E70892BC1F7B801CE0110D4CE01DF91CF91E7
S1131E801F910F9108958F929F92AF92CF92DF92FC
S1131E90EF92FF920F931F93CF93DF93EC01A62E43
S1131EA04A01022FBCD3AC0155274B32510521F016
S1131EB04D32510549F40068AA9411F480E060C0E1
S1131EC0CE01ADD397FDFACF102F1D7F302F307385
S1131ED0F1F48033E1F4FF24FA94FA0C09F43DC0E0
S1131EE0CE019DD397FD39C0382F3F7D383549F455
S1131EF01264AA94AA9489F1CE0191D397FF07C0E2
S1131F002CC006FF02C0126001C01261AF2CC12CAC
S1131F10D12C760120ED280F283078F014FF03C06F
S1131F20BE01BBD317C02A3040F016FFF9CF2F7D76
S1131F303FEE320F3630A0F72750412FC701B601CC
S1131F406CDF6B017C011260AA9451F0CE0167D35F
S1131F5097FFE0CF11FD04C0B1CFC12CD12C760185
S1131F6017FF08C0F094E094D094C094C11CD11C15
S1131F70E11CF11C212FB701A601C40142DF81E05D
S1131F80DF91CF911F910F91FF90EF90DF90CF9051
S1131F90AF909F908F9008957F928F929F92AF926F
S1131FA0BF92CF92DF92EF92FF920F931F93CF9342
S1131FB0DF93CDB7DEB7A197CDBFDEBF5C017A0159
S1131FC08E010F5F1F4F680180E2D8011D928A9530
S1131FD0E9F7F501738040E050E0812CB0E0912CEA
S1131FE081E090E0F90173FCA59173FEA1918F014A
S1131FF07A2F9F01A11103C080E090E07BC0AE3531
S113200019F44115510559F1E92DF0E0E417F507EC
S11320103CF4AD3569F1AD3219F4BB2319F103C0B9
S1132020B11101C08A2EE72FE695E695E695860163
S11320300E0F111DF801A72FA7708C0102C0000F0D
S1132040111FAA95E2F7D801B081BA2BB083781595
S113205059F0781510F47F5FE6CF7150E4CF9924DE
S1132060939403C0B1E001C0B0E04F5F5F4FBACFBB
S1132070BB2319F08E8180628E83911003C0992452
S1132080939415C0F601CE01819620812095219369
S1132090E817F907D1F7F3CFE114F10429F0D701D8
S11320A08C93F70131967F016150F1F0912CC501B9
S11320B069A3B5D269A197FD15C0282F2695269549
S11320C02695F601E20FF11D208130E0AC01477046
S11320D0552702C0359527954A95E2F720FDDCCFB8
S11320E0B501DBD2911088CFE114F10411F0D701CE
S11320F01C92C801A196CDBFDEBFDF91CF911F9185
S11321000F91FF90EF90DF90CF90BF90AF909F9092
S11321108F907F9008954F925F927F928F929F92BB
S1132120AF92BF92CF92DF92EF92FF920F931F93E1
S1132130CF93DF931F92CDB7DEB78C012B017A01C9
S1132140FC0116821782A12CF801D380F201D3FC82
S11321508591D3FE8191382F2F01882309F4EEC095
S113216090E0398342D23981892B19F0C80175DE98
S1132170EBCF353241F4F201D3FC3591D3FE3191EA
S11321802F01353259F4C801398349D2398197FD79
S1132190D3C03817C9F2B80180D2D0C03A3241F462
S11321A0D3FC3591D3FE31912F01BB24B39401C0EC
S11321B0B12C712C20ED230F2A3088F4FB2DF26012
S11321C0BF2E672D70E080E090E040E226DE762EA0
S11321D0F201D3FC3591D3FE31912F01EBCFB1FE47
S11321E003C0711003C0AAC077247A94383619F05A
S11321F03C3661F014C0F201D3FC3591D3FE319129
S11322002F01383661F4FB2DF860BF2E8B2D8460CE
S1132210B82EF201D3FC3591D3FE31912F01332333
S113222009F48CC0632F70E08EEF92E03983E5D11E
S11322303981892B09F482C0B0FC07C0F701C08042
S1132240D180C70102967C0102C0C12CD12C3E363C
S113225049F4F8014681578160E070E02B2DC601F6
S1132260D0DD72CF333699F4B1FC02C07724739475
S1132270C801D5D197FD60C0C114D10429F0F6017D
S11322808083C60101966C017A9491F751C03B3565
S113229051F49201A601672DC8017EDE2C0100973E
S11322A009F046C040C0C8013983D7DD398197FDA4
S11322B043C03F3651F128F4343619F1393661F10F
S11322C028C0333769F03537E1F023C0C114D10495
S11322D029F0F6018082C60101966C017A9459F0C6
S11322E0C8019DD14C0197FD06C07FD1892B71F3A4
S11322F0B801C401D2D1C114D104D1F0F6011082C5
S113230017C0FB2DF062BF2E07C08B2D8061B82E45
S113231003C09B2D9064B92E2B2DA601672DC801F7
S1132320B2DD811105C0F8018381807329F406C0F0
S1132330B0FC0ACFA39408CFAA2019F08A2D90E00C
S113234002C08FEF9FEF0F90DF91CF911F910F91FC
S1132350FF90EF90DF90CF90BF90AF909F908F90C1
S11323607F905F904F9008950F931F93CF93DF93C7
S1132370869F8001879F100D969F100D1124C80120
S11323800DD0EC01009721F0A80160E070E040D18D
S1132390CE01DF91CF911F910F910895CF93DF93D9
S11323A08230910510F482E090E0E0914220F091B7
S11323B0432020E030E0A0E0B0E0309739F14081E4
S11323C0518148175907B8F04817590771F48281A9
S11323D09381109729F012968D939C9313972CC098
S11323E0809342209093432027C02115310531F07A
S11323F04217530718F0A901DB0101C0EF019A014C
S1132400BD01DF010280F381E02DD7CF2115310515
S1132410F9F0281B390B2430310580F48A819B8123
S11324206115710521F0FB018283938304C08093BD
S1132430422090934320FE01329644C0FE01E20FF5
S1132440F31F8193919322503109288339833AC031
S11324502091402030914120232B41F420910220EF
S1132460309103202093402030934120209100207C
S1132470309101202115310541F42DB73EB740912B
S1132480042050910520241B350BE0914020F0914D
S11324904120E217F307A0F42E1B3F0B281739073E
S11324A078F0AC014E5F5F4F2417350748F04E0FAC
S11324B05F1F40934020509341208193919302C029
S11324C0E0E0F0E0CF01DF91CF910895CF93DF9367
S11324D0009709F487C0FC01329712821382C091DD
S11324E04220D0914320209781F420813181280F0C
S11324F0391F80914020909141208217930779F5EC
S1132500E0934020F09341206DC0DE0120E030E0F4
S1132510AE17BF0750F412964D915C9113979D012D
S11325204115510509F1DA01F3CFA283B383408148
S11325305181840F951F8A179B0771F48D919C918B
S11325401197840F951F02968083918312968D9123
S11325509C911397828393832115310529F4E09389
S11325604220F09343203EC0D9011296ED93FC9390
S113257013974D915D91A40FB51FEA17FB0779F4EA
S113258080819181840F951F0296D9018D939C932C
S113259011978281938112968D939C931397E0E017
S11325A0F0E08A819B81009719F0FE01EC01F9CFDC
S11325B0CE01029628813981820F931F20914020F9
S11325C0309141202817390769F4309729F4109283
S11325D042201092432002C012821382C0934020F2
S11325E0D0934120DF91CF91089591116FC0803233
S11325F019F089508550D0F70895FC01059006160E
S113260021F00020D9F7C00108953197CF01089532
S1132610DC0101C06D9341505040E0F70895CF9321
S1132620DF93EC012B8120FF33C026FF0AC02F7BF0
S11326302B838E819F8101968E839F838A8190E074
S113264029C022FF0FC0E881F9818081992787FD85
S11326509095009719F420622B831AC03196E88371
S1132660F9830EC0EA85FB85199597FF09C02B8174
S1132670019611F480E101C080E2822B8B8308C0B3
S11326802E813F812F5F3F4F2E833F83992702C0C6
S11326908FEF9FEFDF91CF910895FB01238120FFFE
S11326A012C026FD10C08F3F3FEF930761F0828375
S11326B02F7D20642383268137812150310926838D
S11326C03783992708958FEF9FEF089599278827D7
S10926D00895F894FFCF09
S11326D60000442020008025000003000025660039
S10B26E625630025730D0000BB
S9030000FC
