S00C0000554152542E73726563DC
S1130000FDC000001AC1000018C1000016C10000A4
S113001014C1000012C1000010C100000EC1000094
S11300200CC100000AC1000008C1000006C10000A4
S113003004C1000002C1000000C10000FEC00000B5
S1130040FCC00000FAC00000F8C00000F6C00000C8
S1130050F4C00000F2C00000F0C00000EEC00000D8
S1130060ECC00000EAC00000E8C00000E6C00000E8
S1130070E4C00000E2C00000E0C00000DEC00000F8
S1130080DCC00000DAC00000D8C00000D6C0000008
S1130090D4C00000D2C00000D0C00000CEC0000018
S11300A0CCC00000CAC00000C8C00000C6C0000028
S11300B0C4C00000C2C00000C0C00000BEC0000038
S11300C0BCC00000BAC00000B8C00000B6C0000048
S11300D0B4C00000B2C00000B0C00000AEC0000058
S11300E0ACC00000AAC00000A8C00000A6C0000068
S11300F0A4C00000A2C00000A0C000009EC0000078
S11301009CC000009AC0000098C0000096C0000087
S113011094C0000092C0000090C000008EC0000097
S11301208CC000008AC0000088C0000086C00000A7
S113013084C0000082C0000080C000007EC00000B7
S11301407CC000007AC0000078C0000076C00000C7
S113015074C0000072C0000070C000006EC00000D7
S11301606CC000006AC0000068C0000066C00000E7
S113017064C0000062C0000060C000005EC00000F7
S11301805CC000005AC0000058C0000056C0000007
S113019054C0000052C0000050C000004EC0000017
S11301A04CC000004AC0000048C0000046C0000027
S11301B044C0000042C0000040C000003EC0000037
S11301C03CC000003AC0000038C0000036C0000047
S11301D034C0000032C0000030C000002EC0000057
S11301E02CC000002AC0000028C0000026C0000067
S11301F024C0000022C0000020C0000011241FBE43
S1130200CFEFCDBFDFE5DEBF00E00CBF10E2A0E022
S1130210B0E2E0E6F0E100E00BBF02C007900D920F
S1130220A231B107D9F720E2A2E1B0E201C01D92E8
S1130230A232B207E1F76BD211C7E2CECF93DF93BC
S11302401F92CDB7DEB78091162090911720E091D0
S11302501220F0911320BE016F5F7F4F19958981A1
S1130260992787FD90950F90DF91CF910895FC0118
S1130270818185FFFDCF608380E090E00895FC01DB
S113028081818823ECF7808108954F925F926F9269
S11302907F928F929F92AF92BF92CF92DF92EF9212
S11302A0FF920F931F93CF93DF93EC014A015B01FD
S11302B028013901D901C801689412F8B695A795A7
S11302C0979587951694D1F7B901A801032E36E1C5
S11302D076956795579547953A95D1F7302D2C81AA
S11302E022FD08C0B695A79597958795769567954D
S11302F05795479588159905AA05BB0508F4A2C02A
S113030084169506A606B70608F49EC08C8182FD65
S113031004C0880C991CAA1CBB1CC301B201A50112
S1130320940149D22F3F31054105510508F48EC08F
S1130330C12CD12C7601CA9419EF05C02C153D05AA
S11303404E055F0568F0CC0CDD1CEE1CFF1C1D3F48
S113035014F46894C0F81F5F173081F7212F4EC042
S1130360212F11230CF04AC0D501C401880F991F15
S1130370AA1FBB1F880F991FAA1FBB1F880F991F95
S1130380AA1FBB1F481A590A6A0A7B0A1E3FECF4CB
S11303906DEF7FEF611B710917FD739504C0440C69
S11303A0551C661C771C6A95D2F7D501C401B69515
S11303B0A79597958795BC01CD01640D751D861D84
S11303C0971DA5019401F7D134C023E0210FD50175
S11303D0C40104C0880F991FAA1FBB1F2A95D2F716
S11303E09C01AD01B695A79597958795BC01CD0164
S11303F0640D751D861D971DDED11BC02D5FD501B3
S1130400C40104C0880F991FAA1FBB1F2A95D2F7E5
S11304109C01AD01B695A79597958795BC01CD0133
S1130420640D751D861D971DC6D1215031094109E2
S11304305109832F8F701295107F182B1F832E83E1
S113044081E018C080E016C080E014C0D501C4016A
S1130450880F991FAA1FBB1F880F991FAA1FBB1FB4
S1130460880F991FAA1FBB1F481A590A6A0A7B0AD8
S113047019EF8ECFDF91CF911F910F91FF90EF90E5
S1130480DF90CF90BF90AF909F908F907F906F90B0
S11304905F904F9008950F931F93CF93DF93EC01D8
S11304A08B01009709F4E6C0803C910521F460E1DA
S11304B080E017D1DFC0C03881E0D80721F462E0C2
S11304C080E00FD1D7C0C115E1E0DE0721F461E07F
S11304D080E007D1CFC0C038F3E0DF0721F461E04A
S11304E081E0FFD0C7C0C03983E0D80721F461E0C0
S11304F082E0F7D0BFC0C115E2E0DE0721F462E07C
S113050081E0EFD0B7C0C034F2E0DF0721F462E04D
S113051082E0E7D0AFC0C03283E0D80721F464E0C2
S113052082E0DFD0A7C0C115E8E0DE0721F461E076
S113053083E0D7D09FC0C115F9E0DF0721F461E063
S113054084E0CFD097C0C1158AE0D80721F461E0D8
S113055085E0C7D08FC0C115EBE0DE0721F461E070
S113056086E0BFD087C0C034F8E0DF0721F462E042
S113057083E0B7D07FC0C03489E0D80721F462E0BB
S113058084E0AFD077C0C034EAE0DE0721F462E053
S113059085E0A7D06FC0C039F8E0DF0721F464E03C
S11305A083E09FD067C0C03989E0D80721F464E0B4
S11305B084E097D05FC0C039EAE0DE0721F464E04C
S11305C085E08FD057C0C039FBE0DF0721F464E039
S11305D086E087D04FC0C03C88E0D80721F468E0AB
S11305E083E07FD047C0C03CE9E0DE0721F468E047
S11305F084E077D03FC0C03AF8E0DF0721F460E13F
S113060083E06FD037C0C03A89E0D80721F460E1B5
S113061084E067D02FC0C03AEAE0DE0721F460E14D
S113062085E05FD027C0C03AFBE0DF0721F460E13A
S113063086E057D01FC0C03B88E0D80721F460E2B1
S113064083E04FD017C0C03BE9E0DE0721F460E24D
S113065084E047D00FC0C038F4E0DF0721F460E441
S113066083E03FD007C0C03A84E0D80719F460E4BF
S113067085E037D08D818F738D83F80194818581D6
S1130680892B9681992311F098E001C090E0892B81
S11306908D83F801408151816281738100E814E8FF
S11306A02EE130E0CE01F1DD9C8198609C839C8139
S11306B090619C83DF91CF911F910F910895682FD2
S11306C08091162090911720E0911420F09115202C
S11306D0199599231CF48FEF9FEF089581E090E022
S11306E008959FB7F894E82FF0E0E059FF4F609524
S11306F08081682360839FBF0895CF93DF93EB01CC
S1130700BEDD8883DF91CF910895B1CD0895CF9355
S1130710DF93CDB7DEB72797CDBFDEBF80EA9AE07F
S1130720809316209093172085E893E080931420FB
S1130730909315208DE793E08093122090931320DB
S113074080910A208D8380910B208E8380910C20D0
S11307508F838091062090910720A0910820B0916A
S1130760092089839A83AB83BC8360E185E0B9DF88
S1130770BE016F5F7F4F80EA9AE08DDE6EE171E02B
S11307808FE593E03AD088E0E0E8F6E0818300E08A
S113079010E00F2EFDE0EF2EF0E2FF2EF02D1F9360
S11307A00F93FF92EF9273D00F5F1F4F0F900F9034
S11307B00F900F90F4CFA1E21A2EAA1BBB1BFD01D0
S11307C00DC0AA1FBB1FEE1FFF1FA217B307E4072C
S11307D0F50720F0A21BB30BE40BF50B661F771F84
S11307E0881F991F1A9469F7609570958095909564
S11307F09B01AC01BD01CF0108950F931F93CF93CB
S1130800DF93EC018B01009731F46115710519F444
S113081080E090E037C06EE070E081E090E030D29C
S1130820FC010097A9F380E883830115110571F099
S11308300287138781E8838380911820909119207F
S1130840892B21F4E0931820F09319202097C9F004
S1130850C087D18783818260838380911A2090919D
S11308601B20892B71F4E0931A20F0931B208091B4
S11308701C2090911D20892B21F4E0931C20F093DF
S11308801D20CF01DF91CF911F910F910895CF9338
S1130890DF93CDB7DEB7FE01369661917191AF015A
S11308A080911A2090911B2003D0DF91CF9108955D
S11308B02F923F924F925F926F927F928F929F926C
S11308C0AF92BF92CF92DF92EF92FF920F931F935A
S11308D0CF93DF93CDB7DEB72C97CDBFDEBF7C01BE
S11308E06B018A01FC0116821782838181FFB0C1EA
S11308F0CE0101964C01F7019381F60193FD859198
S113090093FF81916F01882309F49EC1853239F4E4
S113091093FD859193FF81916F01853221F4B70195
S113092090E00CD3E8CF512C312C20E02032A0F4FD
S11309308B3269F030F4803259F0833269F42061EB
S11309402CC08D3239F0803339F4216026C0226006
S1130950246023C0286021C027FD27C030ED380F54
S11309603A3078F426FF06C0FAE05F9E300D112479
S1130970532E13C08AE0389E300D1124332E20628A
S11309800CC08E3221F426FD5FC1206406C08C3673
S113099011F4206802C0883641F4F60193FD859174
S11309A093FF81916F018111C1CF982F9F7D955441
S11309B0933028F40C5F1F4FFFE3F9830DC0833697
S11309C031F0833771F0833509F057C021C0F80145
S11309D0808189830E5F1F4F44244394512C54011A
S11309E014C03801F2E06F0E711CF801A080B180D0
S11309F026FF03C0652D70E002C06FEF7FEFC501D5
S1130A002C8791D22C0183012C852F77222E16C09E
S1130A103801F2E06F0E711CF801A080B18026FF4E
S1130A2003C0652D70E002C06FEF7FEFC5012C8716
S1130A3068D22C012C852068222E830123FC19C046
S1130A40832D90E048165906A0F4B70180E290E0A7
S1130A5075D23A94F5CFF50127FC859127FE819153
S1130A605F01B70190E06AD231103A94F1E04F1A75
S1130A7051084114510479F7DEC0843611F08936E7
S1130A8031F5F80127FF07C060817181828193816C
S1130A900C5F1F4F08C060817181882777FD8095A6
S1130AA0982F0E5F1F4F2F76B22E97FF09C0909597
S1130AB08095709561957F4F8F4F9F4F2068B22E20
S1130AC02AE030E0A4016CD2A82EA81843C08537D0
S1130AD029F42F7EB22E2AE030E025C0F22FF97FD0
S1130AE0BF2E8F36C1F018F4883579F0ADC0803749
S1130AF019F0883721F0A8C02F2F2061B22EB4FE40
S1130B000DC08B2D8460B82E09C024FF0AC09F2F0E
S1130B109660B92E06C028E030E005C020E130E040
S1130B2002C020E132E0F801B7FE07C060817181A4
S1130B30828193810C5F1F4F06C06081718180E0C8
S1130B4090E00E5F1F4FA4012BD2A82EA818FB2DF6
S1130B50FF77BF2EB6FE0BC02B2D2E7FA51450F4AD
S1130B60B4FE0AC0B2FC08C02B2D2E7E05C07A2C20
S1130B702B2D03C07A2C01C0752C24FF0DC0FE015F
S1130B80EA0DF11D8081803311F4297E09C022FF12
S1130B9006C07394739404C0822F867809F073940A
S1130BA023FD12C020FF06C05A2C731418F4530CF2
S1130BB05718732C731460F4B70180E290E02C870B
S1130BC0BDD173942C85F6CF731410F4371801C07B
S1130BD0312C24FF11C0B70180E390E02C87AED103
S1130BE02C8522FF16C021FF03C088E590E002C0D7
S1130BF088E790E0B7010CC0822F867851F021FD80
S1130C0002C080E201C08BE227FD8DE2B70190E0D3
S1130C1095D1A51430F4B70180E390E08FD15A94B4
S1130C20F8CFAA94F401EA0DF11D8081B70190E098
S1130C3085D1A110F6CF332009F45DCEB70180E24F
S1130C4090E07CD13A94F7CFF7018681978102C076
S1130C508FEF9FEF2C96CDBFDEBFDF91CF911F9119
S1130C600F91FF90EF90DF90CF90BF90AF909F9047
S1130C708F907F906F905F904F903F902F9008954A
S1130C800F931F93CF93DF93869F8001879F100D4F
S1130C90969F100D1124C8010DD0EC01009721F08E
S1130CA0A80160E070E038D1CE01DF91CF911F91AF
S1130CB00F910895CF93DF938230910510F482E071
S1130CC090E0E0912020F091212020E030E0A0E0AD
S1130CD0B0E0309739F14081518148175907B8F095
S1130CE04817590771F482819381109729F012965D
S1130CF08D939C9313972CC0809320209093212054
S1130D0027C02115310531F04217530718F0A90106
S1130D10DB0101C0EF019A01BD01DF010280F38113
S1130D20E02DD7CF21153105F9F0281B390B2430DC
S1130D30310580F48A819B816115710521F0FB01E5
S1130D408283938304C08093202090932120FE010A
S1130D50329644C0FE01E20FF31F81939193225017
S1130D603109288339833AC020911E2030911F20F5
S1130D70232B41F4209102203091032020931E2044
S1130D8030931F202091002030910120211531053E
S1130D9041F42DB73EB74091042050910520241B07
S1130DA0350BE0911E20F0911F20E217F307A0F409
S1130DB02E1B3F0B2817390778F0AC014E5F5F4FAD
S1130DC02417350748F04E0F5F1F40931E205093A1
S1130DD01F208193919302C0E0E0F0E0CF01DF9106
S1130DE0CF910895CF93DF93009709F487C0FC0156
S1130DF0329712821382C0912020D0912120209713
S1130E0081F420813181280F391F80911E20909117
S1130E101F208217930779F5E0931E20F0931F207B
S1130E206DC0DE0120E030E0AE17BF0750F412962B
S1130E304D915C9113979D014115510509F1DA011A
S1130E40F3CFA283B38340815181840F951F8A1706
S1130E509B0771F48D919C911197840F951F0296B5
S1130E608083918312968D919C91139782839383AF
S1130E702115310529F4E0932020F09321203EC070
S1130E80D9011296ED93FC9313974D915D91A40FA4
S1130E90B51FEA17FB0779F480819181840F951FB0
S1130EA00296D9018D939C93119782819381129616
S1130EB08D939C931397E0E0F0E08A819B810097E7
S1130EC019F0FE01EC01F9CFCE0102962881398197
S1130ED0820F931F20911E2030911F20281739075D
S1130EE069F4309729F4109220201092212002C036
S1130EF012821382C0931E20D0931F20DF91CF91C2
S1130F000895FC010590615070400110D8F7809558
S1130F1090958E0F9F1F0895DC0101C06D93415081
S1130F205040E0F70895FC016150704001900110B9
S1130F30D8F7809590958E0F9F1F08950F931F9358
S1130F40CF93DF93182F092FEB018B8181FD03C011
S1130F508FEF9FEF20C082FF10C04E815F812C81F4
S1130F603D81421753077CF4E881F9819F012F5F8B
S1130F703F4F28833983108306C0E885F985812F84
S1130F801995892B29F72E813F812F5F3F4F2E839F
S1130F903F83812F902FDF91CF911F910F9108955F
S1130FA0FA01AA27283051F1203181F1E8946F9396
S1130FB06E7F6E5F7F4F8F4F9F4FAF4FB1E03ED03C
S1130FC0B4E03CD0670F781F891F9A1FA11D680FDA
S1130FD0791F8A1F911DA11D6A0F711D811D911D0D
S1130FE0A11D20D009F468943F912AE0269F112482
S1130FF03019305D3193DEF6CF010895462F4770E6
S1131000405D4193B3E00FD0C9F7F6CF462F4F7040
S1131010405D4A3318F0495D31FD4052419302D09E
S1131020A9F7EACFB4E0A695979587957795679544
S1131030BA95C9F700976105710508959B01AC0144
S11310400A2E06945795479537952795BA95C9F76B
S1131050620F731F841F951FA01D0895F894FFCF7E
S113106000002220200080250000030000256920C4
S10510700D006D
S9030000FC
